{
  "_format": "hh-sol-artifact-1",
  "contractName": "Market",
  "sourceName": "contracts/Market.sol",
  "abi": [
    {
      "inputs": [],
      "stateMutability": "nonpayable",
      "type": "constructor"
    },
    {
      "anonymous": false,
      "inputs": [
        {
          "indexed": false,
          "internalType": "uint256",
          "name": "_tokenId",
          "type": "uint256"
        }
      ],
      "name": "CancelListing",
      "type": "event"
    },
    {
      "anonymous": false,
      "inputs": [
        {
          "indexed": false,
          "internalType": "uint256",
          "name": "_tokenId",
          "type": "uint256"
        },
        {
          "indexed": false,
          "internalType": "uint256",
          "name": "_price",
          "type": "uint256"
        }
      ],
      "name": "ItemListed",
      "type": "event"
    },
    {
      "anonymous": false,
      "inputs": [
        {
          "indexed": false,
          "internalType": "uint256",
          "name": "_tokenId",
          "type": "uint256"
        },
        {
          "indexed": false,
          "internalType": "address",
          "name": "_buyer",
          "type": "address"
        }
      ],
      "name": "MarketSaleCreated",
      "type": "event"
    },
    {
      "anonymous": false,
      "inputs": [
        {
          "indexed": false,
          "internalType": "uint256",
          "name": "_tokenId",
          "type": "uint256"
        },
        {
          "indexed": false,
          "internalType": "uint256",
          "name": "_offerPrice",
          "type": "uint256"
        }
      ],
      "name": "OfferAccepted",
      "type": "event"
    },
    {
      "anonymous": false,
      "inputs": [
        {
          "indexed": false,
          "internalType": "uint256",
          "name": "_tokenId",
          "type": "uint256"
        },
        {
          "indexed": false,
          "internalType": "uint256",
          "name": "_offerId",
          "type": "uint256"
        }
      ],
      "name": "OfferCanceled",
      "type": "event"
    },
    {
      "anonymous": false,
      "inputs": [
        {
          "indexed": false,
          "internalType": "uint256",
          "name": "_tokenId",
          "type": "uint256"
        },
        {
          "indexed": false,
          "internalType": "uint256",
          "name": "_offerPrice",
          "type": "uint256"
        }
      ],
      "name": "OfferSent",
      "type": "event"
    },
    {
      "anonymous": false,
      "inputs": [
        {
          "indexed": false,
          "internalType": "address",
          "name": "_from",
          "type": "address"
        },
        {
          "indexed": false,
          "internalType": "address",
          "name": "_to",
          "type": "address"
        },
        {
          "indexed": false,
          "internalType": "uint256",
          "name": "_tokenId",
          "type": "uint256"
        }
      ],
      "name": "TransferNFT",
      "type": "event"
    },
    {
      "anonymous": false,
      "inputs": [
        {
          "indexed": false,
          "internalType": "uint256",
          "name": "_tokenId",
          "type": "uint256"
        },
        {
          "indexed": false,
          "internalType": "uint256",
          "name": "_loweredPrice",
          "type": "uint256"
        }
      ],
      "name": "priceLowered",
      "type": "event"
    },
    {
      "inputs": [
        {
          "internalType": "uint256",
          "name": "_tokenId",
          "type": "uint256"
        },
        {
          "internalType": "uint256",
          "name": "_offerIndex",
          "type": "uint256"
        },
        {
          "internalType": "address",
          "name": "_coreCollection",
          "type": "address"
        }
      ],
      "name": "acceptOffer",
      "outputs": [],
      "stateMutability": "nonpayable",
      "type": "function"
    },
    {
      "inputs": [
        {
          "internalType": "uint256",
          "name": "_tokenId",
          "type": "uint256"
        },
        {
          "internalType": "address",
          "name": "_coreCollection",
          "type": "address"
        }
      ],
      "name": "buyNFT",
      "outputs": [],
      "stateMutability": "payable",
      "type": "function"
    },
    {
      "inputs": [
        {
          "internalType": "uint256",
          "name": "_tokenId",
          "type": "uint256"
        },
        {
          "internalType": "address",
          "name": "_coreCollection",
          "type": "address"
        }
      ],
      "name": "cancelListing",
      "outputs": [],
      "stateMutability": "nonpayable",
      "type": "function"
    },
    {
      "inputs": [
        {
          "internalType": "uint256",
          "name": "_tokenId",
          "type": "uint256"
        },
        {
          "internalType": "uint256",
          "name": "_offerIndex",
          "type": "uint256"
        },
        {
          "internalType": "address",
          "name": "_coreCollection",
          "type": "address"
        }
      ],
      "name": "cancelOffer",
      "outputs": [],
      "stateMutability": "nonpayable",
      "type": "function"
    },
    {
      "inputs": [
        {
          "internalType": "uint256",
          "name": "_tokenId",
          "type": "uint256"
        },
        {
          "internalType": "uint256",
          "name": "_price",
          "type": "uint256"
        },
        {
          "internalType": "address",
          "name": "_coreCollection",
          "type": "address"
        }
      ],
      "name": "createMarketItem",
      "outputs": [],
      "stateMutability": "payable",
      "type": "function"
    },
    {
      "inputs": [
        {
          "internalType": "uint256",
          "name": "_tokenId",
          "type": "uint256"
        }
      ],
      "name": "getOfferIds",
      "outputs": [
        {
          "internalType": "uint256[]",
          "name": "",
          "type": "uint256[]"
        }
      ],
      "stateMutability": "view",
      "type": "function"
    },
    {
      "inputs": [
        {
          "internalType": "uint256",
          "name": "",
          "type": "uint256"
        },
        {
          "internalType": "uint256",
          "name": "",
          "type": "uint256"
        }
      ],
      "name": "idToOffers",
      "outputs": [
        {
          "internalType": "uint256",
          "name": "",
          "type": "uint256"
        }
      ],
      "stateMutability": "view",
      "type": "function"
    },
    {
      "inputs": [
        {
          "internalType": "uint256",
          "name": "",
          "type": "uint256"
        }
      ],
      "name": "idToOnSale",
      "outputs": [
        {
          "internalType": "bool",
          "name": "",
          "type": "bool"
        }
      ],
      "stateMutability": "view",
      "type": "function"
    },
    {
      "inputs": [
        {
          "internalType": "uint256",
          "name": "",
          "type": "uint256"
        }
      ],
      "name": "idToPrice",
      "outputs": [
        {
          "internalType": "uint256",
          "name": "",
          "type": "uint256"
        }
      ],
      "stateMutability": "view",
      "type": "function"
    },
    {
      "inputs": [],
      "name": "listingFee",
      "outputs": [
        {
          "internalType": "uint256",
          "name": "",
          "type": "uint256"
        }
      ],
      "stateMutability": "view",
      "type": "function"
    },
    {
      "inputs": [
        {
          "internalType": "uint256",
          "name": "_tokenId",
          "type": "uint256"
        },
        {
          "internalType": "uint256",
          "name": "_loweredPrice",
          "type": "uint256"
        },
        {
          "internalType": "address",
          "name": "_coreCollection",
          "type": "address"
        }
      ],
      "name": "lowerPrice",
      "outputs": [],
      "stateMutability": "nonpayable",
      "type": "function"
    },
    {
      "inputs": [
        {
          "internalType": "uint256",
          "name": "_tokenId",
          "type": "uint256"
        },
        {
          "internalType": "uint256",
          "name": "_offerPrice",
          "type": "uint256"
        },
        {
          "internalType": "address",
          "name": "_coreCollection",
          "type": "address"
        }
      ],
      "name": "makeOffer",
      "outputs": [],
      "stateMutability": "payable",
      "type": "function"
    },
    {
      "inputs": [
        {
          "internalType": "uint256",
          "name": "",
          "type": "uint256"
        }
      ],
      "name": "offerIdToPrice",
      "outputs": [
        {
          "internalType": "uint256",
          "name": "",
          "type": "uint256"
        }
      ],
      "stateMutability": "view",
      "type": "function"
    },
    {
      "inputs": [
        {
          "internalType": "uint256",
          "name": "",
          "type": "uint256"
        }
      ],
      "name": "offerIdToUser",
      "outputs": [
        {
          "internalType": "address",
          "name": "",
          "type": "address"
        }
      ],
      "stateMutability": "view",
      "type": "function"
    },
    {
      "inputs": [
        {
          "internalType": "uint256",
          "name": "",
          "type": "uint256"
        }
      ],
      "name": "offerStatus",
      "outputs": [
        {
          "internalType": "bool",
          "name": "",
          "type": "bool"
        }
      ],
      "stateMutability": "view",
      "type": "function"
    }
  ],
  "bytecode": "0x60806040526703782dace9d9000060015534801561001c57600080fd5b506124fe8061002c6000396000f3fe6080604052600436106100e85760003560e01c80636a1b7ecc1161008a578063d8db47a711610059578063d8db47a7146102fc578063dadc6f7814610318578063e27a2bad14610341578063f9c6a0541461037e576100e8565b80636a1b7ecc1461021a5780637a734178146102455780639188148114610282578063d843b2c7146102bf576100e8565b80633af7bac6116100c65780633af7bac61461017c5780633be3076d1461019857806360101d3a146101d55780636457c4f8146101fe576100e8565b806307ae6a5d146100ed5780630f91eaee1461011657806338e4fd7f14610153575b600080fd5b3480156100f957600080fd5b50610114600480360381019061010f9190611a9b565b6103bb565b005b34801561012257600080fd5b5061013d600480360381019061013891906119fa565b6107be565b60405161014a9190611d63565b60405180910390f35b34801561015f57600080fd5b5061017a60048036038101906101759190611a9b565b6107f1565b005b61019660048036038101906101919190611a9b565b610aa8565b005b3480156101a457600080fd5b506101bf60048036038101906101ba91906119fa565b610c77565b6040516101cc9190611dd7565b60405180910390f35b3480156101e157600080fd5b506101fc60048036038101906101f79190611a23565b610c97565b005b61021860048036038101906102139190611a9b565b610e74565b005b34801561022657600080fd5b5061022f6110d7565b60405161023c9190611f92565b60405180910390f35b34801561025157600080fd5b5061026c600480360381019061026791906119fa565b6110dd565b6040516102799190611db5565b60405180910390f35b34801561028e57600080fd5b506102a960048036038101906102a491906119fa565b611148565b6040516102b69190611f92565b60405180910390f35b3480156102cb57600080fd5b506102e660048036038101906102e191906119fa565b611160565b6040516102f39190611dd7565b60405180910390f35b61031660048036038101906103119190611a23565b611180565b005b34801561032457600080fd5b5061033f600480360381019061033a9190611a9b565b611604565b005b34801561034d57600080fd5b5061036860048036038101906103639190611a5f565b61180c565b6040516103759190611f92565b60405180910390f35b34801561038a57600080fd5b506103a560048036038101906103a091906119fa565b61183d565b6040516103b29190611f92565b60405180910390f35b8073ffffffffffffffffffffffffffffffffffffffff16636352211e846040518263ffffffff1660e01b81526004016103f49190611f92565b60206040518083038186803b15801561040c57600080fd5b505afa158015610420573d6000803e3d6000fd5b505050506040513d601f19601f8201168201806040525081019061044491906119d1565b73ffffffffffffffffffffffffffffffffffffffff163373ffffffffffffffffffffffffffffffffffffffff16146104b1576040517f08c379a00000000000000000000000000000000000000000000000000000000081526004016104a890611f12565b60405180910390fd5b60006004600085815260200190815260200160002083815481106104fe577f4e487b7100000000000000000000000000000000000000000000000000000000600052603260045260246000fd5b9060005260206000200154905060006006600083815260200190815260200160002060009054906101000a900473ffffffffffffffffffffffffffffffffffffffff1690503373ffffffffffffffffffffffffffffffffffffffff166108fc60056000858152602001908152602001600020549081150290604051600060405180830381858888f1935050505015801561059c573d6000803e3d6000fd5b5060005b600460008781526020019081526020016000208054905081101561071a57600060046000888152602001908152602001600020828154811061060b577f4e487b7100000000000000000000000000000000000000000000000000000000600052603260045260246000fd5b906000526020600020015490508381146106da576007600082815260200190815260200160002060009054906101000a900460ff16156106d95760006006600083815260200190815260200160002060009054906101000a900473ffffffffffffffffffffffffffffffffffffffff1690508073ffffffffffffffffffffffffffffffffffffffff166108fc60056000858152602001908152602001600020549081150290604051600060405180830381858888f193505050501580156106d6573d6000803e3d6000fd5b50505b5b60006007600083815260200190815260200160002060006101000a81548160ff02191690831515021790555050808061071290612091565b9150506105a0565b5060006002600087815260200190815260200160002060006101000a81548160ff0219169083151502179055506000600360008781526020019081526020016000208190555061076b858285611855565b7f397f87b3946767b09967764d50032941de13a2606bcb39dfed61d7b1ed0192cc8560056000858152602001908152602001600020546040516107af929190611fd6565b60405180910390a15050505050565b60066020528060005260406000206000915054906101000a900473ffffffffffffffffffffffffffffffffffffffff1681565b8073ffffffffffffffffffffffffffffffffffffffff16636352211e846040518263ffffffff1660e01b815260040161082a9190611f92565b60206040518083038186803b15801561084257600080fd5b505afa158015610856573d6000803e3d6000fd5b505050506040513d601f19601f8201168201806040525081019061087a91906119d1565b73ffffffffffffffffffffffffffffffffffffffff163373ffffffffffffffffffffffffffffffffffffffff1614156108e8576040517f08c379a00000000000000000000000000000000000000000000000000000000081526004016108df90611e12565b60405180910390fd5b6000600460008581526020019081526020016000208381548110610935577f4e487b7100000000000000000000000000000000000000000000000000000000600052603260045260246000fd5b906000526020600020015490506006600082815260200190815260200160002060009054906101000a900473ffffffffffffffffffffffffffffffffffffffff1673ffffffffffffffffffffffffffffffffffffffff163373ffffffffffffffffffffffffffffffffffffffff16146109e3576040517f08c379a00000000000000000000000000000000000000000000000000000000081526004016109da90611df2565b60405180910390fd5b60006007600083815260200190815260200160002060006101000a81548160ff0219169083151502179055503373ffffffffffffffffffffffffffffffffffffffff166108fc60056000848152602001908152602001600020549081150290604051600060405180830381858888f19350505050158015610a68573d6000803e3d6000fd5b507fc3631089d86cf1fe0600bb8be145021dc1f4dbf1053ce815836f092d69cd9bdc8482604051610a9a929190611fd6565b60405180910390a150505050565b8073ffffffffffffffffffffffffffffffffffffffff16636352211e846040518263ffffffff1660e01b8152600401610ae19190611f92565b60206040518083038186803b158015610af957600080fd5b505afa158015610b0d573d6000803e3d6000fd5b505050506040513d601f19601f82011682018060405250810190610b3191906119d1565b73ffffffffffffffffffffffffffffffffffffffff163373ffffffffffffffffffffffffffffffffffffffff1614610b9e576040517f08c379a0000000000000000000000000000000000000000000000000000000008152600401610b9590611eb2565b60405180910390fd5b6001543414610be2576040517f08c379a0000000000000000000000000000000000000000000000000000000008152600401610bd990611f52565b60405180910390fd5b60016002600085815260200190815260200160002060006101000a81548160ff0219169083151502179055508160036000858152602001908152602001600020819055507f5cedb4b4e9d21f2b6ae92d858fd47c1f6ef4af540c48aea4cccc861bdfbffb69836003600086815260200190815260200160002054604051610c6a929190611fd6565b60405180910390a1505050565b60026020528060005260406000206000915054906101000a900460ff1681565b8073ffffffffffffffffffffffffffffffffffffffff16636352211e836040518263ffffffff1660e01b8152600401610cd09190611f92565b60206040518083038186803b158015610ce857600080fd5b505afa158015610cfc573d6000803e3d6000fd5b505050506040513d601f19601f82011682018060405250810190610d2091906119d1565b73ffffffffffffffffffffffffffffffffffffffff163373ffffffffffffffffffffffffffffffffffffffff1614610d8d576040517f08c379a0000000000000000000000000000000000000000000000000000000008152600401610d8490611eb2565b60405180910390fd5b600115156002600084815260200190815260200160002060009054906101000a900460ff16151514610df4576040517f08c379a0000000000000000000000000000000000000000000000000000000008152600401610deb90611e52565b60405180910390fd5b60006002600084815260200190815260200160002060006101000a81548160ff021916908315150217905550600060036000848152602001908152602001600020819055507fa5a50019386103d06e1a716ed5398f455d38288e801607ee55320507043468e582604051610e689190611f92565b60405180910390a15050565b8073ffffffffffffffffffffffffffffffffffffffff16636352211e846040518263ffffffff1660e01b8152600401610ead9190611f92565b60206040518083038186803b158015610ec557600080fd5b505afa158015610ed9573d6000803e3d6000fd5b505050506040513d601f19601f82011682018060405250810190610efd91906119d1565b73ffffffffffffffffffffffffffffffffffffffff163373ffffffffffffffffffffffffffffffffffffffff161415610f6b576040517f08c379a0000000000000000000000000000000000000000000000000000000008152600401610f6290611ed2565b60405180910390fd5b813414610fad576040517f08c379a0000000000000000000000000000000000000000000000000000000008152600401610fa490611ef2565b60405180910390fd5b600080815480929190610fbf90612091565b91905055506004600084815260200190815260200160002060005490806001815401808255809150506001900390600052602060002001600090919091909150558160056000805481526020019081526020016000208190555033600660008054815260200190815260200160002060006101000a81548173ffffffffffffffffffffffffffffffffffffffff021916908373ffffffffffffffffffffffffffffffffffffffff1602179055506001600760008054815260200190815260200160002060006101000a81548160ff0219169083151502179055507fa804d23695e6c56bb2b898c77e1f65a24131c2aac85e2d4dbd697a1b8f2983f183836040516110ca929190611fd6565b60405180910390a1505050565b60015481565b60606004600083815260200190815260200160002080548060200260200160405190810160405280929190818152602001828054801561113c57602002820191906000526020600020905b815481526020019060010190808311611128575b50505050509050919050565b60056020528060005260406000206000915090505481565b60076020528060005260406000206000915054906101000a900460ff1681565b6000600360008481526020019081526020016000205490506002600084815260200190815260200160002060009054906101000a900460ff166111f8576040517f08c379a00000000000000000000000000000000000000000000000000000000081526004016111ef90611e32565b60405180910390fd5b80341461123a576040517f08c379a000000000000000000000000000000000000000000000000000000000815260040161123190611f72565b60405180910390fd5b8173ffffffffffffffffffffffffffffffffffffffff16636352211e846040518263ffffffff1660e01b81526004016112739190611f92565b60206040518083038186803b15801561128b57600080fd5b505afa15801561129f573d6000803e3d6000fd5b505050506040513d601f19601f820116820180604052508101906112c391906119d1565b73ffffffffffffffffffffffffffffffffffffffff163373ffffffffffffffffffffffffffffffffffffffff161415611331576040517f08c379a000000000000000000000000000000000000000000000000000000000815260040161132890611e72565b60405180910390fd5b8173ffffffffffffffffffffffffffffffffffffffff16636352211e846040518263ffffffff1660e01b815260040161136a9190611f92565b60206040518083038186803b15801561138257600080fd5b505afa158015611396573d6000803e3d6000fd5b505050506040513d601f19601f820116820180604052508101906113ba91906119d1565b73ffffffffffffffffffffffffffffffffffffffff166108fc349081150290604051600060405180830381858888f193505050501580156113ff573d6000803e3d6000fd5b5061140b833384611855565b60006002600085815260200190815260200160002060006101000a81548160ff0219169083151502179055506000600360008581526020019081526020016000208190555060005b60046000858152602001908152602001600020805490508110156115c55760006004600086815260200190815260200160002082815481106114be577f4e487b7100000000000000000000000000000000000000000000000000000000600052603260045260246000fd5b906000526020600020015490506007600082815260200190815260200160002060009054906101000a900460ff16156115855760006006600083815260200190815260200160002060009054906101000a900473ffffffffffffffffffffffffffffffffffffffff1690508073ffffffffffffffffffffffffffffffffffffffff166108fc60056000858152602001908152602001600020549081150290604051600060405180830381858888f19350505050158015611582573d6000803e3d6000fd5b50505b60006007600083815260200190815260200160002060006101000a81548160ff0219169083151502179055505080806115bd90612091565b915050611453565b507ff0b3c9b1f0b20104eaa0188304d1a1561775a07e1c058447f0ac560ea1212eda83336040516115f7929190611fad565b60405180910390a1505050565b600115156002600085815260200190815260200160002060009054906101000a900460ff1615151461166b576040517f08c379a000000000000000000000000000000000000000000000000000000000815260040161166290611e52565b60405180910390fd5b600360008481526020019081526020016000205482106116c0576040517f08c379a00000000000000000000000000000000000000000000000000000000081526004016116b790611f32565b60405180910390fd5b8073ffffffffffffffffffffffffffffffffffffffff16636352211e846040518263ffffffff1660e01b81526004016116f99190611f92565b60206040518083038186803b15801561171157600080fd5b505afa158015611725573d6000803e3d6000fd5b505050506040513d601f19601f8201168201806040525081019061174991906119d1565b73ffffffffffffffffffffffffffffffffffffffff163373ffffffffffffffffffffffffffffffffffffffff16146117b6576040517f08c379a00000000000000000000000000000000000000000000000000000000081526004016117ad90611e92565b60405180910390fd5b8160036000858152602001908152602001600020819055507f25a53b4765f33963a2b56848068188a323acb28e46d6194203c835e5883f4ea383836040516117ff929190611fd6565b60405180910390a1505050565b6004602052816000526040600020818154811061182857600080fd5b90600052602060002001600091509150505481565b60036020528060005260406000206000915090505481565b60008173ffffffffffffffffffffffffffffffffffffffff16636352211e856040518263ffffffff1660e01b81526004016118909190611f92565b60206040518083038186803b1580156118a857600080fd5b505afa1580156118bc573d6000803e3d6000fd5b505050506040513d601f19601f820116820180604052508101906118e091906119d1565b90508173ffffffffffffffffffffffffffffffffffffffff166323b872dd8285876040518463ffffffff1660e01b815260040161191f93929190611d7e565b600060405180830381600087803b15801561193957600080fd5b505af115801561194d573d6000803e3d6000fd5b505050507fa64cdec004d2859ac7547f4ed3252f53d0fa0b8dcbcc93a47894eee072714b6281848660405161198493929190611d7e565b60405180910390a150505050565b6000813590506119a18161249a565b92915050565b6000815190506119b68161249a565b92915050565b6000813590506119cb816124b1565b92915050565b6000602082840312156119e357600080fd5b60006119f1848285016119a7565b91505092915050565b600060208284031215611a0c57600080fd5b6000611a1a848285016119bc565b91505092915050565b60008060408385031215611a3657600080fd5b6000611a44858286016119bc565b9250506020611a5585828601611992565b9150509250929050565b60008060408385031215611a7257600080fd5b6000611a80858286016119bc565b9250506020611a91858286016119bc565b9150509250929050565b600080600060608486031215611ab057600080fd5b6000611abe868287016119bc565b9350506020611acf868287016119bc565b9250506040611ae086828701611992565b9150509250925092565b6000611af68383611d45565b60208301905092915050565b611b0b81612049565b82525050565b6000611b1c8261200f565b611b268185612027565b9350611b3183611fff565b8060005b83811015611b62578151611b498882611aea565b9750611b548361201a565b925050600181019050611b35565b5085935050505092915050565b611b788161205b565b82525050565b6000611b8b603083612038565b9150611b9682612109565b604082019050919050565b6000611bae602e83612038565b9150611bb982612158565b604082019050919050565b6000611bd1602d83612038565b9150611bdc826121a7565b604082019050919050565b6000611bf4602283612038565b9150611bff826121f6565b604082019050919050565b6000611c17602683612038565b9150611c2282612245565b604082019050919050565b6000611c3a602683612038565b9150611c4582612294565b604082019050919050565b6000611c5d602883612038565b9150611c68826122e3565b604082019050919050565b6000611c80601883612038565b9150611c8b82612332565b602082019050919050565b6000611ca3602983612038565b9150611cae8261235b565b604082019050919050565b6000611cc6601f83612038565b9150611cd1826123aa565b602082019050919050565b6000611ce9602c83612038565b9150611cf4826123d3565b604082019050919050565b6000611d0c602183612038565b9150611d1782612422565b604082019050919050565b6000611d2f601983612038565b9150611d3a82612471565b602082019050919050565b611d4e81612087565b82525050565b611d5d81612087565b82525050565b6000602082019050611d786000830184611b02565b92915050565b6000606082019050611d936000830186611b02565b611da06020830185611b02565b611dad6040830184611d54565b949350505050565b60006020820190508181036000830152611dcf8184611b11565b905092915050565b6000602082019050611dec6000830184611b6f565b92915050565b60006020820190508181036000830152611e0b81611b7e565b9050919050565b60006020820190508181036000830152611e2b81611ba1565b9050919050565b60006020820190508181036000830152611e4b81611bc4565b9050919050565b60006020820190508181036000830152611e6b81611be7565b9050919050565b60006020820190508181036000830152611e8b81611c0a565b9050919050565b60006020820190508181036000830152611eab81611c2d565b9050919050565b60006020820190508181036000830152611ecb81611c50565b9050919050565b60006020820190508181036000830152611eeb81611c73565b9050919050565b60006020820190508181036000830152611f0b81611c96565b9050919050565b60006020820190508181036000830152611f2b81611cb9565b9050919050565b60006020820190508181036000830152611f4b81611cdc565b9050919050565b60006020820190508181036000830152611f6b81611cff565b9050919050565b60006020820190508181036000830152611f8b81611d22565b9050919050565b6000602082019050611fa76000830184611d54565b92915050565b6000604082019050611fc26000830185611d54565b611fcf6020830184611b02565b9392505050565b6000604082019050611feb6000830185611d54565b611ff86020830184611d54565b9392505050565b6000819050602082019050919050565b600081519050919050565b6000602082019050919050565b600082825260208201905092915050565b600082825260208201905092915050565b600061205482612067565b9050919050565b60008115159050919050565b600073ffffffffffffffffffffffffffffffffffffffff82169050919050565b6000819050919050565b600061209c82612087565b91507fffffffffffffffffffffffffffffffffffffffffffffffffffffffffffffffff8214156120cf576120ce6120da565b5b600182019050919050565b7f4e487b7100000000000000000000000000000000000000000000000000000000600052601160045260246000fd5b7f556e617574686f72697a656420706572736f6e20747279696e6720746f20636160008201527f6e63656c20746865206c697374696e6700000000000000000000000000000000602082015250565b7f4f776e65722063616e6e6f742063616e63656c206c697374696e67206f66207360008201527f6f6d656f6e652773206f66666572000000000000000000000000000000000000602082015250565b7f43616e6e6f7420627579204e46547320776869636820617265206e6f74206c6960008201527f7374656420666f722073616c6500000000000000000000000000000000000000602082015250565b7f546865206974656d2073686f756c64206265206c697374656420666f7220736160008201527f6c65000000000000000000000000000000000000000000000000000000000000602082015250565b7f46756e6374696f6e2063616e6e6f742062652063616c6c65642062792074686560008201527f204f776e65720000000000000000000000000000000000000000000000000000602082015250565b7f546865207072696365206f6e6c79206265206c6f77657265642062792074686560008201527f206f776e65720000000000000000000000000000000000000000000000000000602082015250565b7f46756e6374696f6e2063616e206f6e6c792062652063616c6c6564206279207460008201527f6865206f776e6572000000000000000000000000000000000000000000000000602082015250565b7f4f776e65722063616e6e6f74206d616b65206f66666572730000000000000000600082015250565b7f4d7573742070617920746865206f66666572207072696365206d656e74696f6e60008201527f656420627920796f750000000000000000000000000000000000000000000000602082015250565b7f4f6e6c79206f776e65722063616e2061636365707420746865206f6666657200600082015250565b7f50726963652073686f756c64206265206c6f776572207468616e20746865206360008201527f757272656e742070726963650000000000000000000000000000000000000000602082015250565b7f4d7573742070617920746865207265717569726564204c697374696e6720466560008201527f6500000000000000000000000000000000000000000000000000000000000000602082015250565b7f4d7573742070617920746865206c697374656420707269636500000000000000600082015250565b6124a381612049565b81146124ae57600080fd5b50565b6124ba81612087565b81146124c557600080fd5b5056fea264697066735822122068e6b9d0aa274dfde5aa050a55bfb6d6341809b5796b84b02c4f319a4a57ade664736f6c63430008040033",
  "linkReferences": {},
  "deployedLinkReferences": {}
}